S0210000456D6265646465645F5374797374656D735F50726F6A6563742E73726563F8
S11300000C942A000C9493000C9447000C94470021
S11300100C9447000C9447000C9447000C94470040
S11300200C9447000C9447000C946A000C9447000D
S11300300C9447000C9447000C9447000C94470020
S11300400C9447000C9447000C9447000C94470010
S11300500C94470011241FBECFE5D8E0DEBFCDBF0E
S113006010E0A0E6B0E0ECEEFAE002C005900D92DC
S1130070A837B107D9F720E0A8E7B0E001C01D9286
S1130080AF37B207E1F70E9455020C9474050C9443
S113009000008FE690E00E94320481E790E00E9425
S11300A0060588E790E00E94E6018CE690E00E9455
S11300B0E60189E690E00E94E60186E690E00E946F
S11300C0E60183E690E00E94E60180E690E00E946B
S11300D0E60108951F920F920FB60F9211242F93E9
S11300E08F939F9380917D0090917E0001969093D1
S11300F07E0080937D0080917D0090917E00893EFA
S1130100934048F010927E0010927D0080917C0014
S11301108F5F80937C009F918F912F910F900FBEE2
S11301200F901F9018951F920F920FB60F921124E3
S11301308F9380917B00811105C081E080937B00C7
S113014010927C008F910F900FBE0F901F90189506
S1130150CF93C82F3EC020917C00C21305C08CE60B
S113016090E00E94040235C020917C0030E0AC0194
S11301704F5F5F4F2417350729F48CE690E00E9407
S11301802D0227C020917C0030E0AC014E5F5F4F10
S11301902417350729F48CE690E00E94040219C064
S11301A020917C0030E0AC014D5F5F4F2417350790
S11301B029F48CE690E00E942D020BC020917C0073
S11301C030E004962817390721F48CE690E00E9469
S11301D0040280917C008C1760F020917C0030E058
S11301E08C2F90E0AC014B5F5F4F241735070CF464
S11301F0B2CFCF910895CF93C82F52C020917C00E5
S1130200C21309C08CE690E00E94040283E690E0E9
S11302100E94040245C020917C0030E0AC014F5F95
S11302205F4F2417350749F48CE690E00E942D02B5
S113023083E690E00E942D0233C020917C0030E0E0
S1130240AC014E5F5F4F2417350749F48CE690E00C
S11302500E94040283E690E00E94040221C02091DF
S11302607C0030E0AC014D5F5F4F2417350749F443
S11302708CE690E00E942D0283E690E00E942D021D
S11302800FC020917C0030E004962817390741F410
S11302908CE690E00E94040283E690E00E9404024F
S11302A080917C008C1760F020917C0030E08C2FD2
S11302B090E0AC014B5F5F4F241735070CF49ECFE1
S11302C0CF91089510927C0080916B00813029F4C5
S11302D080E690E00E942D0215C088E790E00E941D
S11302E02D0280E00E94FB008CE690E00E942D022B
S11302F083E690E00E942D0280E690E00E942D02A9
S113030010927C0086E690E00E94040289E690E068
S11303100E94040280917C008530E0F389E690E03D
S11303200E942D0285E00E94FB0083E690E00E947B
S11303302D0286E690E00E942D0280E690E00E9465
S113034004028CE690E00E942D0288E790E00E946F
S1130350040210927B00089580917B00811131C0CA
S113036010927C0088E790E00E94040280917B0058
S1130370811104C080917C008530C0F388E790E04F
S11303800E942D0285E00E94A8008CE690E00E9465
S11303902D0289E690E00E94040280917C008A305C
S11303A020F080917C008F30C0F389E690E00E94B9
S11303B02D028FE00E94A8008CE690E00E942D029E
S11303C00895813011F40E9462010895CF93DF9360
S11303D000D000D0CDB7DEB7009771F0FC0180816A
S11303E0898381818A8381E08B8382818C83CE019E
S11303F001960E946A0301C081E00F900F900F9054
S11304000F90DF91CF9108950F931F93CF93DF93B4
S113041000D000D0CDB7DEB78C01009779F0FC0195
S11304208081898381818A8381E08B8382818C832B
S113043061E0CE0101960E945A0201C081E081115F
S113044003C091E0F80192830F900F900F900F90EA
S1130450DF91CF911F910F9108950F931F93CF9325
S1130460DF9300D000D0CDB7DEB78C01009779F0D0
S1130470FC018081898381818A8381E08B838281ED
S11304808C8360E0CE0101960E945A0201C081E093
S1130490811102C0F80112820F900F900F900F90FB
S11304A0DF91CF911F910F9108950E9449000E94FE
S11304B0AC01FDCF009709F480C0FC0121812830F4
S11304C008F07DC06130C9F58081813091F028F059
S11304D08230D9F0833029F174C03BB381E090E0DD
S11304E002C0880F991F2A95E2F7832B8BBB80E00B
S11304F0089538B381E090E002C0880F991F2A95CF
S1130500E2F7832B88BB80E0089535B381E090E067
S113051002C0880F991F2A95E2F7832B85BB80E0E0
S1130520089532B381E090E002C0880F991F2A95A4
S1130530E2F7832B82BB80E00895611144C0FC0183
S11305408081813099F028F08230E9F0833041F1E4
S11305503CC03BB381E090E002C0880F991F2A950C
S1130560E2F7809583238BBB80E0089538B381E064
S113057090E002C0880F991F2A95E2F780958323A3
S113058088BB80E0089535B381E090E002C0880F15
S1130590991F2A95E2F78095832385BB80E008950F
S11305A032B381E090E002C0880F991F2A95E2F7E8
S11305B08095832382BB80E0089581E0089583E0E1
S11305C0089582E0089585E0089582E008956830F2
S11305D008F078C04130C1F5813091F028F08230C4
S11305E0D9F0833029F170C02AB381E090E002C0D1
S11305F0880F991F6A95E2F7822B8ABB80E00895E1
S113060027B381E090E002C0880F991F6A95E2F752
S1130610822B87BB80E0089524B381E090E002C080
S1130620880F991F6A95E2F7822B84BB80E00895B6
S113063021B381E090E002C0880F991F6A95E2F728
S1130640822B81BB80E00895411140C0813099F034
S113065028F08230E9F0833041F13AC02AB381E0D6
S113066090E002C0880F991F6A95E2F78095822373
S11306708ABB80E0089527B381E090E002C0880F30
S1130680991F6A95E2F78095822387BB80E00895DD
S113069024B381E090E002C0880F991F6A95E2F7C5
S11306A08095822384BB80E0089521B381E090E0AB
S11306B002C0880F991F6A95E2F78095822381BB57
S11306C080E0089583E0089582E0089584E0089529
S11306D082E00895CF93DF93009759F0EC014A81AB
S11306E0698188810E94E7026B81CE010E945A02CF
S11306F001C081E0DF91CF910895009709F457C0BC
S1130700FC01218121111FC08081811106C085B7A0
S11307108C7F826085BF80E00895813029F485B79D
S1130720836085BF80E00895833031F485B78C7F82
S1130730816085BF80E008958230D9F585B78C7FCC
S113074085BF80E00895213001F5FC01808181118D
S113075006C085B7837F886085BF80E008958130B7
S113076029F485B78C6085BF80E00895833031F427
S113077085B7837F846085BF80E008958230D9F493
S113078085B7837F85BF80E008952230B1F4FC01F2
S11307908081811105C084B78F7B84BF80E0089578
S11307A0813069F484B7806484BF80E0089581E077
S11307B0089583E0089583E0089582E0089583E036
S11307C00895009789F0FC018181813039F018F097
S11307D0823039F00BC08AB780E008958AB780E090
S11307E008958AB780E0089581E0089582E008952D
S11307F00097B9F0FC018181813049F018F0823012
S113080059F011C08BB780648BBF80E008958BB71B
S113081080688BBF80E008958BB780628BBF80E0D7
S1130820089581E0089582E008950097B9F0FC01ED
S11308308181813049F018F0823059F011C08BB7B2
S11308408F7B8BBF80E008958BB78F778BBF80E061
S113085008958BB78F7D8BBF80E0089581E0089564
S113086082E00895CF93DF93009781F0EC010E941A
S11308701504CE010E947D03CE010E94E103CE0146
S11308800E94F8039FB790689FBF01C081E0DF9189
S1130890CF910895009709F442C0FC0120812130D2
S11308A081F128F0223089F02330E9F03AC0FC01CC
S11308B082818530C0F58370982F9295907F83B79D
S11308C08F7C892B83BF80E00895FC018281853071
S11308D060F58370982F9295907F83B78F7C892BD6
S11308E083BF80E00895FC018381853000F5837027
S11308F0982F9295907F83B78F7C892B83BF80E05C
S11309000895FC0184818530A0F48370982F92951A
S1130910907F83B78F7C892B83BF80E0089581E02B
S1130920089583E0089584E0089584E0089584E0C0
S1130930089584E008958FB780688FBF89B7826077
S113094089BF089583B7887F83BF89B78D7F89BFA7
S113095089B78E7F89BF80E00895009709F44CC061
S1130960653608F04BC0FC0120812330C9F4838133
S1130970823051F4962F80E064E670E00E944C05CA
S113098061506CBF80E008958330D1F5962F80E0EC
S113099064E670E00E944C0560956CBF80E00895A9
S11309A0213081F5FC018481823071F42EEF31E035
S11309B0629FC001639F900D112468EC70E00E9457
S11309C04C056CBF80E008958330F1F42EEF31E0E4
S11309D0629FC001639F900D112464E670E00E9441
S11309E04C05261B370BC90199230CF401969595E8
S11309F087958CBF80E0089581E0089586E008958E
S1130A0083E0089583E0089583E008951F93CF93CE
S1130A10DF930097D9F1EC010E94A204888185300C
S1130A2058F493B780FB96F993BF888186958170BB
S1130A3093B780FB93F993BFCE010E944A04182F09
S1130A408881811103C08D8182BF13C0823019F463
S1130A508D818CBF0EC041E063E081E00E94E7021B
S1130A606E81653628F4CE010E94AD04182F01C0B2
S1130A7016E08981893030F4877093B7987F892B89
S1130A8083BF01C012E00E949B0401C011E0812FCA
S1130A90DF91CF911F91089597FB072E16F40094D0
S1130AA007D077FD09D00E94600507FC05D03EF40D
S1130AB0909581959F4F0895709561957F4F089506
S1130AC0AA1BBB1B51E107C0AA1FBB1FA617B70770
S1130AD010F0A61BB70B881F991F5A95A9F780958C
S10F0AE09095BC01CD010895F894FFCF5F
S1130AEC01020101010001000000020000010001EB
S10B0AFC0002020000007C006E
S9030000FC
